:040000003CEF00F0E1
:100008001982FACF15F0FBCF16F0A0A60EEF00F07C
:1000180010EF00F026EF00F0A1A615EF00F017EFA3
:1000280000F026EF00F002D824EF00F00500FA6E89
:100038000B50FD6E0C50FE6EF850FF6EFA50120019
:1000480036EF00F09DA62BEF00F02DEF00F036EF15
:1000580000F09EA632EF00F034EF00F036EF00F02B
:1000680017EF00F016C0FBFF15C0FAFF1992110038
:100078009AEF01F028EC02F0C5EC01F00009D8B4C1
:1000880048EF00F04AEF00F05CEF00F0BBEC01F045
:100098000009D8B452EF00F054EF00F058EF00F028
:1000A800010E0D6E9CEF00F0020E0D6E9CEF00F03D
:1000B800BBEC01F00009D8B464EF00F066EF00F083
:1000C8006AEF00F0030E0D6E9CEF00F0040E0D6E4B
:1000D8009CEF00F074EC01F0A7EC01F00009D8B433
:1000E80078EF00F07AEF00F0B9EF00F046EC01F09D
:1000F800B9EF00F074EC01F0B9EF00F0A7EC01F0F3
:100108000009D8B48AEF00F08CEF00F0B9EF00F0E6
:100118007AEF00F0B1EC01F00009D8B496EF00F0E6
:1001280098EF00F0B9EF00F05DEC01F0B9EF00F0E6
:100138000D50136E146A1450000AD8B4A6EF00F0DC
:10014800B9EF00F01350010AD8B46EEF00F0030ABB
:10015800D8B47EEF00F0010AD8B482EF00F0070AA5
:10016800D8B48EEF00F0B9EF00F026EC02F01200E0
:10017800CFEC01F0F28EF28CF28CD8EC01F0FFECAF
:1001880000F0420E176E040E186EF9EC01F0190E0D
:100198001160D1EF00F0D3EF00F0D5EF00F08B84C1
:1001A8008B9C190E1164DBEF00F0DDEF00F0E9EF36
:1001B80000F0230E1160E3EF00F0E5EF00F0E9EF47
:1001C80000F08B808B92CBEF00F0230E1164EFEFE1
:1001D80000F0F1EF00F0F7EF00F08B808B928B8C42
:1001E8008B94CBEF00F08B908B928B948B9CCBEF06
:1001F80000F03CEF00F08BEC01F0080EF4EC01F09D
:100208007F0EEFEC01F07C0E176E000E186EFEEC00
:1002180001F0000E176E000E186E03EC02F0220EAD
:10022800176E040E186EE5EC01F0320E176E040E10
:10023800186EF9EC01F03A0E176E040E186E08EC01
:1002480002F0000E176E000E186EEAEC01F024ECB6
:1002580002F01200000E8D6E000E8C6E000E896E7C
:10026800000E8A6E000E8B6E070E966E926893686B
:10027800B80E946E95687E681F0E7F6E000E7C6EB9
:10028800F18E120007500810D8B44DEF01F04FEF6F
:1002980001F05CEF01F002D85CEF01F00500FA6EA6
:1002A8000750FD6E0850FE6EF850FF6EFA501200AF
:1002B800120009500A10D8B464EF01F066EF01F09B
:1002C80073EF01F002D873EF01F00500FA6E0950E0
:1002D800FD6E0A50FE6EF850FF6EFA5012001200C2
:1002E80005500610D8B47BEF01F07DEF01F08AEFDE
:1002F80001F002D88AEF01F00500FA6E0550FD6E94
:100308000650FE6EF850FF6EFA5012001200C6BA80
:1003180090EF01F092EF01F099EF01F0800EC76EB7
:10032800060EC612810EC56EC68A120000EE01F0D6
:10033800110EEE6AE806FDE119901992000EF86EAA
:100348000001BCEF00F0C7A0ACEF01F0AFEF01F087
:10035800010EB0EF01F0000E1200C7B0B6EF01F0C9
:10036800B9EF01F0010EBAEF01F0000E1200C7B4A8
:10037800C0EF01F0C3EF01F0010EC4EF01F0000E71
:100388001200C7AACAEF01F0CDEF01F0010ECEEFBF
:1003980001F0000E12000DEC02F0D8EC01F02EEC8A
:1003A80001F0E0EC01F01200800EC76E060EC612D6
:1003B800810EC56EC69A1200300ED36E000E9B6E6B
:1003C800120017C007F018C008F0120017C001F09B
:1003D80018C002F01200176E17501724776E12001B
:1003E800176E17501724C86E120017C009F018C0EE
:1003F8000AF0120017C00BF018C00CF0120017C05A
:1004080003F018C004F0120017C005F018C006F079
:100418001200D08EA2869F861200105015EC02F0B2
:100428001200126E12C0C9FF12002AEC02F00F6E01
:1004380012002AEC02F00E6E1200C9CF11F0120061
:100448009D861200C68812009E961200C95012009E
:020000040030CA
:0E000000FF021F1EFF8B85FF0FC00FE00F4099
:00000001FF
