:040000005BEF00F0C2
:100008004682FACF10F0FBCF11F0D9CF12F0DACF39
:1000180013F0F3CF14F0F4CF15F0F6CF16F0F7CFB6
:1000280017F0F8CF18F0F5CF19F0A0A61EEF00F0E2
:1000380020EF00F035EF00F0A1A625EF00F027EF44
:1000480000F035EF00F002D833EF00F00500FA6E4B
:100058003A50FD6E3B50FE6EFF6AFA50120045EFB3
:1000680000F09DA63AEF00F03CEF00F045EF00F0FD
:100078009EA641EF00F043EF00F045EF00F027EFB8
:1000880000F019C0F5FF18C0F8FF17C0F7FF16C039
:10009800F6FF15C0F4FF14C0F3FF13C0DAFF12C057
:1000A800D9FF11C0FBFF10C0FAFF46921100E0EF24
:0200B80017F03F
:10100000004C3DFA3C263D142DD82D403DF032D405
:101010003DCC3DC43DBC3DB43DAC3DA43D343D7AEA
:10102000364B6172696D2052616D6164616E202D75
:101030003E20536D61727420486F6D650D005465DC
:101040006D70657261747572653A200054696D65E2
:101050003A2000446174653A20002569000081C08F
:10106000D9FF82C0DAFFDECF85F0DECF86F0DECF9B
:1010700087F085C0F6FF86C0F7FF87C0F8FF08003D
:10108000F550250AD8A447EF08F049EF08F037EFEC
:101090000CF081C0D9FF82C0DAFFDE2A000EDE220A
:1010A000DE22000E356E000E346E34C03CF0366821
:1010B0003768000E00018E6F000E8D6FAFEF08F0E5
:1010C0003C8081C0D9FF82C0DAFFDE2A000EDE221A
:1010D000DE22AFEF08F03C8261EF08F03C8461EF64
:1010E00008F03C8661EF08F03C8861EF08F0000EE4
:1010F0008E6F010E8D6FAFEF08F081C0D9FF82C0F7
:10110000DAFFDECF85F0DECF86F0DECF87F085C058
:10111000F6FF86C0F7FF87C0F8FF0800F550886F1C
:10112000896B8951000AD8B498EF08F077EF08F07E
:101130008851200AD8B471EF08F0030AD8B474EFCC
:1011400008F0080AD8B46EEF08F0060AD8B460EFC9
:1011500008F01D0AD8B46BEF08F077EF08F08D5156
:101160008E11D8B4B6EF08F0B8EF08F07DEF08F0B4
:101170003CA0BDEF08F0BFEF08F0C0EF08F03C92D4
:1011800081C020F082C021F083C022F084C023F00F
:101190004CEC15F020C034F021C035F035BED5EF51
:1011A00008F0D3EF08F0DAEF08F03C80346C351E1D
:1011B000D8B0352A81C0D9FF82C0DAFFDECF85F0F2
:1011C000DECF86F0DECF87F085C0F6FF86C0F7FF62
:1011D00087C0F8FF0800F5502E0AD8A4F2EF08F0F7
:1011E000F4EF08F00AEF09F081C0D9FF82C0DAFFFE
:1011F000DE2A000EDE22DE2281C020F082C021F035
:1012000083C022F084C023F04CEC15F020C036F0EF
:1012100021C037F081C0D9FF82C0DAFFDECF94F061
:10122000DECF95F0DDCF96F094C0F6FF95C0F7FFC6
:1012300096C0F8FF0800F5CF8FF02FEF09F0010EF0
:101240009427000E9523000E962361EF09F0690E96
:101250008F6F61EF09F0000E8F6F61EF09F00001F1
:101260008F51856F866B8651000AD8B43AEF09F02A
:101270002BEF09F08551580AD8B427EF09F03C0A42
:10128000D8B427EF09F00D0AD8B427EF09F0050A02
:10129000D8B41FEF09F0020AD8B427EF09F0010A09
:1012A000D8B427EF09F01B0AD8B41FEF09F0010AE0
:1012B000D8B427EF09F00D0AD8B427EF09F02BEFC7
:1012C00009F094C0F6FF95C0F7FF96C0F8FF08003C
:1012D000F550640AD8B46FEF09F071EF09F0D3EF5D
:1012E00009F094C0F6FF95C0F7FF96C0F8FF08001C
:1012F000F550690AD8A47FEF09F081EF09F019EFE2
:101300000AF0D3EF09F083C0D9FF84C0DAFFDFCF42
:1013100085F0020EDE26DFCF86F0000EDD2285C0CE
:10132000D9FF86C0DAFFDECF90F0DDCF91F0000E5E
:1013300091BFFF0E926F936FECEF09F083C0D9FF5E
:1013400084C0DAFFDFCF85F0040EDE26DFCF86F023
:10135000000EDD2285C0D9FF86C0DAFFDECF90F017
:10136000DECF91F0DECF92F0DECF93F0ECEF09F01C
:1013700083C0D9FF84C0DAFFDFCF85F0020EDE26FE
:10138000DFCF86F0000EDD2285C0D9FF86C0DAFFF0
:10139000DECF90F0DDCF91F0000E91BFFF0E926F87
:1013A000936FECEF09F08F51856F866B8651000AC1
:1013B000D8B4DDEF09F0ECEF09F08551690AD8B433
:1013C00083EF09F0050AD8B49EEF09F0180AD8B4E3
:1013D000B8EF09F0ECEF09F0010E856F000E866F93
:1013E00085519425876F86519521886F000E86BFA1
:1013F000FF0E9621896F81C0D9FF82C0DAFF87C0B6
:10140000DEFF88C0DEFF89C0DEFF7FC06AF080C0DB
:101410006BF090C06CF091C06DF092C06EF093C014
:101420006FF09BEC0DF06AC07FF06BC080F05BEF5B
:101430000CF094C0F6FF95C0F7FF96C0F8FF0800C7
:10144000F550780AD8B427EF0AF029EF0AF0ACEF8C
:101450000AF094C0F6FF95C0F7FF96C0F8FF0800A9
:10146000F550580AD8B437EF0AF039EF0AF0ACEF6C
:101470000AF094C0F6FF95C0F7FF96C0F8FF080089
:10148000F5506F0AD8B447EF0AF049EF0AF0ACEF15
:101490000AF094C0F6FF95C0F7FF96C0F8FF080069
:1014A000F550750AD8A457EF0AF059EF0AF049EF42
:1014B0000BF0ACEF0AF083C0D9FF84C0DAFFDFCFB6
:1014C00085F0020EDE26DFCF86F0000EDD2285C01D
:1014D000D9FF86C0DAFFDECF87F0DDCF88F087C086
:1014E00090F088C091F0926B936BC5EF0AF083C0C7
:1014F000D9FF84C0DAFFDFCF85F0040EDE26DFCF10
:1015000086F0000EDD2285C0D9FF86C0DAFFDECF6F
:1015100090F0DECF91F0DECF92F0DECF93F0C5EF0A
:101520000AF083C0D9FF84C0DAFFDFCF85F0020E56
:10153000DE26DFCF86F0000EDD2285C0D9FF86C013
:10154000DAFFDECF90F0DDCF91F0000E91BFFF0EFD
:10155000926F936FC5EF0AF08F51856F866B86513E
:10156000000AD8B4B6EF0AF0C5EF0AF08551690A4F
:10157000D8B45BEF0AF0050AD8B477EF0AF0180A7E
:10158000D8B491EF0AF0C5EF0AF0010E856F000E96
:10159000866F85519425876F86519521886F000E3F
:1015A00086BFFF0E9621896F81C0D9FF82C0DAFF06
:1015B00087C0DEFF88C0DEFF89C0DEFF25EF0BF0AD
:1015C0007FC06AF080C06BF090C06CF091C06DF08D
:1015D00092C06EF093C06FF08FEC0FF06AC07FF096
:1015E0006BC080F05BEF0CF07FC06AF080C06BF0E6
:1015F00090C06CF091C06DF092C06EF093C06FF02F
:1016000019EC11F06AC07FF06BC080F05BEF0CF05A
:101610007FC06AF080C06BF090C06CF091C06DF03C
:1016200092C06EF093C06FF094C0F6FF95C0F7FFC4
:1016300096C0F8FF0800F5CF70F05CEC0CF06AC0C3
:101640007FF06BC080F05BEF0CF094C0F6FF95C0AC
:10165000F7FF96C0F8FF0800F550856F866B86513E
:10166000000AD8B436EF0BF049EF0BF08551580A59
:10167000D8B408EF0BF0370AD8B4E0EF0AF01A0A32
:10168000D8B4F4EF0AF00D0AD8B408EF0BF049EF24
:101690000BF094C0F6FF95C0F7FF96C0F8FF080066
:1016A000F5506E0AD8A457EF0BF059EF0BF0FAEF94
:1016B0000BF0C2EF0BF083C0D9FF84C0DAFFDFCF9D
:1016C00085F0020EDE26DFCF86F0000EDD2285C01B
:1016D000D9FF86C0DAFFDECF87F0DDCF88F087C084
:1016E000D9FF88C0DAFFE1C0DEFFE2C0DDFFDBEF3B
:1016F0000BF0E1C085F0E2C086F0000E86BFFF0E61
:10170000876F886F83C0D9FF84C0DAFFDFCF89F08D
:10171000020EDE26DFCF8AF0000EDD2289C0D9FF5F
:101720008AC0DAFFDECF8BF0DDCF8CF08BC0D9FF23
:101730008CC0DAFF85C0DEFF86C0DEFF87C0DEFF1B
:1017400088C0DEFFDBEF0BF083C0D9FF84C0DAFF77
:10175000DFCF85F0020EDE26DFCF86F0000EDD2221
:1017600085C0D9FF86C0DAFFDECF87F0DDCF88F0F5
:1017700087C0D9FF88C0DAFFE1C0DEFFE2C0DDFF2D
:10178000DBEF0BF08F51856F866B8651000AD8B462
:10179000CCEF0BF0DBEF0BF08551690AD8B45BEFAF
:1017A0000BF0050AD8B479EF0BF0180AD8B4A4EFFF
:1017B0000BF0DBEF0BF0010E856F000E866F85518D
:1017C0009425876F86519521886F000E86BFFF0E86
:1017D0009621896F81C0D9FF82C0DAFF87C0DEFF02
:1017E00088C0DEFF89C0DEFF000E806F000E7F6FB5
:1017F0005BEF0CF081C0D9FF82C0DAFFDECF85F04D
:10180000DECF86F0DECF87F085C0F6FF86C0F7FF1B
:1018100087C0F8FF0800F550250AD8A412EF0CF095
:1018200014EF0CF02DEF0CF081C0D9FF82C0DAFF6D
:10183000DE2A000EDE22DE22000E1B6E250E1A6E40
:101840007FC01CF080C01DF0C1EC15F0000E00013F
:10185000806F010E7F6F5BEF0CF081C0D9FF82C0FB
:10186000DAFFDE2A000EDE22DE22F4EF0BF081C06A
:10187000D9FF82C0DAFFDECF85F0DECF86F0DECF83
:1018800087F085C0F6FF86C0F7FF87C0F8FF080025
:10189000F5501A6E1B6A7FC01CF080C01DF0C1ECB1
:1018A00015F081C0D9FF82C0DAFFDE2A000EDE22E9
:1018B000DE2226EF0CF0120037BE61EF0CF063EF72
:1018C0000CF064EF0CF03C9237BE6BEF0CF069EF5C
:1018D0000CF072EF0CF0000E0001786F010E776FC4
:1018E00076EF0CF036C077F037C078F034C07AF07D
:1018F00035C07BF000016C516D116E116F11D8A4D1
:1019000084EF0CF087EF0CF0010E88EF0CF0000E66
:10191000796F3CA88EEF0CF090EF0CF09CEF0CF080
:101920007951D8B496EF0CF098EF0CF09CEF0CF0D6
:10193000FE0E7A27FF0E7B23000E7D6F1F0E7C6F3D
:10194000000E01012B6F1DEF0DF07C07D8A07D0765
:101950006C510F0B7E6F090E7E65B1EF0CF0B3EF8B
:101960000CF0BBEF0CF0570E7E25756F766B000EFA
:101970007623C1EF0CF0300E7E25756F766B000E6E
:10198000762375C07EF0BF0E7025716F726BFF0EEF
:101990007223725107E11A0E715DD8B0D2EF0CF0CC
:1019A000D4EF0CF0F4EF0CF07E51716F726B200EDF
:1019B0007113000E72139F0E7125736FFF0E72214B
:1019C000746F745107E11A0E735DD8B0EAEF0CF032
:1019D000ECEF0CF0F4EF0CF07EC01EF01F6AB7ECD9
:1019E0001CF01E5000017E6F0C0E7C25D96E010E7E
:1019F0007D21DA6E7EC0DFFF7707D8A078077A07EF
:101A0000D8A07B076CC071F06DC072F06EC073F02F
:101A10006FC074F0050E12EF0DF0D890743373336D
:101A200072337133E82E0DEF0DF071C06CF072C09F
:101A30006DF073C06EF074C06FF000017DBF2AEFCF
:101A40000DF07D5109E1020E7C5DD8A02AEF0DF06A
:101A50002CEF0DF058EF0DF06C516D116E116F11F0
:101A6000D8A435EF0DF037EF0DF0A5EF0CF078BFEF
:101A700044EF0DF0785106E17705D8B042EF0DF054
:101A800044EF0DF0A5EF0CF07BBF4FEF0DF07B5155
:101A900008E17A05D8A04FEF0DF051EF0DF058EFA7
:101AA0000DF03CB256EF0DF058EF0DF0A5EF0CF035
:101AB00036503710D8B45FEF0DF061EF0DF086EFC0
:101AC0000DF03CA866EF0DF068EF0DF086EF0DF01D
:101AD0007951D8B46EEF0DF070EF0DF086EF0DF088
:101AE0007C07D8A07D070C0E7C25D96E010E7D21C8
:101AF000DA6E70C0DFFF7C07D8A07D070C0E7C2556
:101B0000D96E010E7D21DA6E300EDF6E6AC060F094
:101B10006BC061F00C0E7C25626F010E7D21636F3E
:101B20007AC064F07BC065F026EC16F060C06AF005
:101B300061C06BF0120000016FBFA1EF0DF0A4EFC8
:101B40000DF0010EA5EF0DF0000E786F7851D8B4AE
:101B5000ACEF0DF0AEEF0DF0B6EF0DF06F1F6E1F96
:101B60006D1F6C6D000E6D236E236F2337BEBBEFB0
:101B70000DF0BDEF0DF0BEEF0DF03C9237BEC5EF9E
:101B80000DF0C3EF0DF0CBEF0DF0000E736F010EF3
:101B9000726FCFEF0DF036C072F037C073F034C003
:101BA00074F035C075F07851D8A4D9EF0DF0DBEFA3
:101BB0000DF0E2EF0DF03CA4E0EF0DF0E2EF0DF0E0
:101BC000FBEF0DF07407D8A075077851D8A4EBEFA0
:101BD0000DF0EDEF0DF0F3EF0DF0000E716F2B0E29
:101BE000706FF7EF0DF0000E716F2D0E706F70C0FB
:101BF00078F007EF0EF03CA600EF0EF002EF0EF0CB
:101C000007EF0EF07407D8A07507200E786F000E4E
:101C1000776F1F0E766F000E01012B6F55EF0EF0E0
:101C20007607D8A077070C0E7625D96E010E77219E
:101C3000DA6E6CC01AF06DC01BF06EC01CF06FC085
:101C40001DF00A0E1E6E000E1F6E000E206E000E9E
:101C5000216ED6EC14F01AC024F01BC025F01BEC4A
:101C60001CF02450300FDF6E00017207D8A07307FC
:101C70007407D8A075076CC01AF06DC01BF06EC059
:101C80001CF06FC01DF00A0E1E6E000E1F6E000EBF
:101C9000206E000E216ED2EC13F01AC06CF01BC047
:101CA0006DF01CC06EF01DC06FF0000177BF61EFDA
:101CB0000EF0775108E17605D8A061EF0EF063EFE2
:101CC0000EF08FEF0EF06C516D116E116F11D8A4E4
:101CD0006CEF0EF06EEF0EF010EF0EF073BF7BEFB7
:101CE0000EF0735106E17205D8B079EF0EF07BEF7C
:101CF0000EF010EF0EF075BF86EF0EF0755108E193
:101D00007405D8A086EF0EF088EF0EF08FEF0EF07E
:101D10003CB28DEF0EF08FEF0EF010EF0EF0785119
:101D2000D8B495EF0EF097EF0EF0A2EF0EF0760715
:101D3000D8A077070C0E7625D96E010E7721DA6EC2
:101D400078C0DFFF6AC060F06BC061F00C0E7625D2
:101D5000626F010E7721636F74C064F075C065F027
:101D600026EC16F060C06AF061C06BF01200000152
:101D70006B390F0B300FCD6F6B510F0B300FCE6FD8
:101D80003A0ECF6F6A390F0B300FD06F6A510F0BBD
:101D9000300FD16F3A0ED26F69390F0B300FD36FFE
:101DA00069510F0B300FD46F0D0ED56F6C390F0BBF
:101DB000300FD66F6C510F0B300FD76F3A0ED86FB4
:101DC0006D390F0B300FD96F6D510F0B300FDA6F6C
:101DD0003A0EDB6F6E390F0B300FDC6F6E510F0B4D
:101DE000300FDD6F0D0EDE6F4C0E1B6E100E1C6E75
:101DF0009AEC1CF0400E0001656F000E666F4C0EF1
:101E0000676F100E686F36EC19F0000E0001706FEE
:101E1000000E6F6FCD0E6F25D96E000E7021DA6E39
:101E2000DF504BEC1EF0080E00016F197011D8B492
:101E30001CEF0FF01EEF0FF02CEF0FF0400E606F55
:101E4000000E616FCD0E6F25D96E000E7021DA6E17
:101E5000DF50626FB0EC18F000016F4B702B70BF59
:101E60003BEF0FF0705109E1090E6F5DD8A03BEF19
:101E70000FF03DEF0FF00AEF0FF0400E606F000E15
:101E8000616FC00E626FF3EC18F0530E1B6E100EF4
:101E90001C6E9AEC1CF0400E0001656F000E666F20
:101EA000530E676F100E686F36EC19F0000E0001CC
:101EB000726F090E716FCD0E7125D96E000E7221F1
:101EC000DA6EDF504BEC1EF0110E00017119721129
:101ED000D8B46DEF0FF06FEF0FF07DEF0FF0400E05
:101EE000606F000E616FCD0E7125D96E000E7221EC
:101EF000DA6EDF50626FB0EC18F00001714B722B9C
:101F000072BF8CEF0FF0725109E1120E715DD8A013
:101F10008CEF0FF08EEF0FF05BEF0FF0120037BE7B
:101F200094EF0FF096EF0FF097EF0FF03C9237BE63
:101F30009EEF0FF09CEF0FF0A5EF0FF0000E0001E9
:101F4000756F010E746FA9EF0FF036C074F037C0D3
:101F500075F034C077F035C078F0000E00017A6F6C
:101F60001F0E796F000E01012B6F000E0001766FBE
:101F7000EAEF0FF07907D8A07A076C51070B766F5C
:101F80000C0E7925D96E010E7A21DA6E7651300F5A
:101F9000DF6E7407D8A075077707D8A078076CC0E4
:101FA00070F06DC071F06EC072F06FC073F0040E0F
:101FB000DFEF0FF0D8907333723371337033E82E44
:101FC000DAEF0FF070C06CF071C06DF072C06EF09F
:101FD00073C06FF07ABFF5EF0FF07A5108E1790521
:101FE000D8A0F5EF0FF0F7EF0FF023EF10F06C51E2
:101FF0006D116E116F11D8A400EF10F002EF10F008
:10200000BAEF0FF075BF0FEF10F0755106E17405D0
:10201000D8B00DEF10F00FEF10F0BAEF0FF078BF5F
:102020001AEF10F0785108E17705D8A01AEF10F0F8
:102030001CEF10F023EF10F03CB221EF10F023EF73
:1020400010F0BAEF0FF07651D8A429EF10F02BEF73
:1020500010F034EF10F036503710D8A432EF10F0F3
:1020600034EF10F049EF10F03CA839EF10F03BEFDF
:1020700010F049EF10F07907D8A07A070C0E7925F7
:10208000D96E010E7A21DA6E300EDF6E7707D8A096
:1020900078076AC060F06BC061F00C0E7925626F42
:1020A000010E7A21636F77C064F078C065F026EC8A
:1020B00016F060C06AF061C06BF012001AC024F024
:1020C0001BC025F01E501F10D8A469EF10F06BEF55
:1020D00010F06DEF10F018EF11F024C0D9FF25C0FB
:1020E000DAFF1CC0DFFF1E502424206E1F50252065
:1020F000216EFF0E2024D96EFF0E2120DA6E1CC047
:10210000DFFF1F5007E1030E1E5CD8B08AEF10F00E
:102110008CEF10F08EEF10F018EF11F020EE01F0C0
:102120002450D9262550DA221CC0DFFF20EE02F011
:102130002450D9262550DA221CC0DFFF1E5024244B
:10214000206E1F502520216EFE0E2024D96EFF0E1A
:102150002120DA6E1CC0DFFF1E502424206E1F5089
:102160002520216EFD0E2024D96EFF0E2120DA6E6F
:102170001CC0DFFF1F5007E1070E1E5CD8B0C3EF85
:1021800010F0C5EF10F0C7EF10F018EF11F020EECF
:1021900003F02450D9262550DA221CC0DFFF1E5040
:1021A0002424206E1F502520216EFC0E2024D96E81
:1021B000FF0E2120DA6E1CC0DFFF1F5007E1090E61
:1021C0001E5CD8B0E6EF10F0E8EF10F0EAEF10F088
:1021D00018EF11F024C020F025C021F0201E211E90
:1021E000204A212A030E2014226E236A225024261C
:1021F0002350252222501E5E23501F5AFC0E1E160D
:10220000FF0E1F160FEF11F024C0D9FF25C0DAFF13
:102210001CC0DFFF1E06D8A01F06244A252A1E5018
:102220001F10D8A416EF11F018EF11F004EF11F001
:10223000120037BE1EEF11F020EF11F021EF11F068
:102240003C9237BE28EF11F026EF11F02FEF11F07E
:10225000000E0001716F010E706F33EF11F036C088
:1022600070F037C071F034C072F035C073F0000EFA
:102270000001756F1F0E746F000E01012B6F80EF50
:1022800011F07407D8A075070C0E7425D96E010ED5
:102290007521DA6E6CC01AF06DC01BF06EC01CF0B8
:1022A0006FC01DF00A0E1E6E000E1F6E000E206E17
:1022B000000E216E6CEC18F01A50300FDF6E00012A
:1022C0007007D8A071077207D8A073076CC01AF006
:1022D0006DC01BF06EC01CF06FC01DF00A0E1E6EAC
:1022E000000E1F6E000E206E000E216E3FEC17F0E8
:1022F0001AC06CF01BC06DF01CC06EF01DC06FF0FA
:10230000000174517511D8B488EF11F08AEF11F003
:10231000B6EF11F06C516D116E116F11D8A493EFDF
:1023200011F095EF11F041EF11F071BFA2EF11F034
:10233000715106E17005D8B0A0EF11F0A2EF11F0D5
:1023400041EF11F073BFADEF11F0735108E1720569
:10235000D8A0ADEF11F0AFEF11F0B6EF11F03CB235
:10236000B4EF11F0B6EF11F041EF11F06AC060F078
:102370006BC061F00C0E7425626F010E7521636FE6
:1023800072C064F073C065F026EC16F060C06AF0AD
:1023900061C06BF01200000E0001696F655166119B
:1023A000D8A4D5EF11F0D7EF11F0D9EF11F07BEFF2
:1023B00012F0010E6525246E000E6621256E27ECB5
:1023C00018F000016A6F65C024F066C025F027ECA4
:1023D00018F000016A6F000E696F69516525676F1B
:1023E000000E6621686F020E6725246E000E6821BC
:1023F000256E27EC18F00001692B070E696503EFC5
:1024000012F005EF12F0EDEF11F065C060F066C05C
:1024100061F0380E626FF3EC18F0680E0001676F20
:10242000E40EE82EFED7672FFCD700F065C060F001
:1024300066C061F0380E0001626FF3EC18F01A0EFE
:102440000001676FF80EE82EFED7672FFCD700F06B
:1024500065C060F066C061F0380E0001626FF3EC99
:1024600018F0C80EE82EFED765C060F066C061F0B7
:10247000380E0001626FF3EC18F000016A6F65C05E
:1024800060F066C061F0010E626FF3EC18F00001BD
:102490006A6F65C060F066C061F0020E626FF3ECB7
:1024A00018F000016A6F65C060F066C061F0060E4A
:1024B000626FF3EC18F000016A6F65C060F066C0EF
:1024C00061F00C0E626FF3EC18F000016A6F65C0EA
:1024D00060F066C061F0280E626FF3EC18F0000146
:1024E0006A6F65C060F066C061F0800E626FF3ECE9
:1024F00018F000016A6F1200010E226E1A501B10B4
:10250000D8B485EF12F087EF12F0A7EF12F01AC0DF
:10251000D9FF1BC0DAFFDF30E832E832070B1C6E50
:10252000080E1C6096EF12F098EF12F0A7EF12F071
:102530001AC0D9FF1BC0DAFFDF50070B1C6E040E58
:102540001C64A5EF12F0A7EF12F00AEF13F0000ED3
:10255000226E2BEF13F01AC0D9FF1BC0DAFFDF3059
:10256000E832E832070B1C6E010E1D6E1C2ABBEF11
:1025700012F0D8901D361C2EB9EF12F01D50FF0A34
:102580001E6E1AC0D9FF1BC0DAFFDF50070B1F6E8B
:102590001F50020DF10EF324D96E000EF420DA6EF6
:1025A000DECF20F0DDCF21F020C0D9FF21C0DAFF3F
:1025B0001E50DF162BEF13F01AC0D9FF1BC0DAFF35
:1025C000DF30E832E832070B1C6E010E1D6E1C2A4C
:1025D000ECEF12F0D8901D361C2EEAEF12F01AC064
:1025E000D9FF1BC0DAFFDF50070B1E6E1E50020D15
:1025F000F10EF324D96E000EF420DA6EDECF1FF058
:10260000DDCF20F01FC0D9FF20C0DAFF1D50DF1240
:102610002BEF13F01AC0D9FF1BC0DAFFDFBC13EF9A
:1026200013F016EF13F0010E17EF13F0000E1C6EEF
:102630001D6A1D50000AD8B420EF13F0A7EF12F066
:102640001C50000AD8B4ABEF12F0010AD8B4DCEF8A
:1026500012F0A7EF12F022501200010E236E1A5052
:102660001B10D8B436EF13F038EF13F058EF13F017
:102670001AC0D9FF1BC0DAFFDF30E832E832070B9F
:102680001D6E080E1D6047EF13F049EF13F058EF71
:1026900013F01AC0D9FF1BC0DAFFDF50070B1D6E05
:1026A000040E1D6456EF13F058EF13F0BBEF13F058
:1026B000000E236ED0EF13F01AC0D9FF1BC0DAFF53
:1026C000DF30E832E832070B1D6E010E1E6E1D2A48
:1026D0006CEF13F0D8901E361D2E6AEF13F01AC05F
:1026E000D9FF1BC0DAFFDF50070B1F6E1F50020D12
:1026F000E70EF324D96E000EF420DA6EDECF20F060
:10270000DDCF21F020C0D9FF21C0DAFF1E50DF123B
:10271000D0EF13F01AC0D9FF1BC0DAFFDF30E83268
:10272000E832070B1D6E010E1E6E1D2A9AEF13F084
:10273000D8901E361D2E98EF13F01E50FF0A1F6E04
:102740001AC0D9FF1BC0DAFFDF50070B206E2050E4
:10275000020DE70EF324D96E000EF420DA6EDECF00
:1027600021F0DDCF22F021C0D9FF22C0DAFF1F50B7
:10277000DF16D0EF13F01C501D6E1E6A1E50000AAB
:10278000D8B4C5EF13F058EF13F01D50000AD8B4B9
:102790008AEF13F0010AD8B45CEF13F058EF13F08E
:1027A00023501200000E236E21BEDBEF13F0D9EF91
:1027B00013F0E5EF13F0211E201E1F1E1E6C000EED
:1027C0001F2220222122010E236E1DBEECEF13F0EA
:1027D000EAEF13F0F6EF13F01D1E1C1E1B1E1A6C01
:1027E000000E1B221C221D22010E231A000E246E35
:1027F000000E256E000E266E000E276E1E501F1056
:1028000020102110D8B407EF14F009EF14F03FEFB7
:1028100014F0010E226E13EF14F0D8901E361F36FE
:1028200020362136222A21AE18EF14F01AEF14F0C8
:102830000DEF14F0D89024362536263627361E5054
:102840001A5C1F501B5820501C5821501D58D8A0EE
:102850002CEF14F02EEF14F037EF14F01E501A5E28
:102860001F501B5A20501C5A21501D5A2480D890AA
:10287000213220321F321E32222E1AEF14F0235042
:10288000D8B445EF14F047EF14F04FEF14F0271EC3
:10289000261E251E246C000E25222622272224C057
:1028A0001AF025C01BF026C01CF027C01DF0120036
:1028B00040EC1EF0F28EF28CF28C210E1B6E100E8C
:1028C0001C6E9AEC1CF0400E0001656F000E666FE6
:1028D000CBEC11F0400E0001606F000E616F010E35
:1028E000626FF3EC18F09EEC1BF021EE06F0050E83
:1028F000EBCFDBFFE806FCE221EE06F000EE69F02C
:10290000050EDBCFEBFFE806FCE2B7EC0EF09A0E0B
:1029100085EC1EF03E6E080E266E110E276EA20E7E
:1029200074EC1EF0080E266EA20E8CEC1EF03D6EAE
:10293000000E236E3EC024F0100E9EEC1AF0400EE6
:102940000001606F000E616F940E626FF3EC18F07F
:10295000400E0001656F000E666F3E0E676F100E31
:10296000686F36EC19F0E30E0001A76F000EA86F38
:102970003E500AEC1BF0400E0001656F000E666FC2
:10298000E30E676F000E686F36EC19F0030E01015D
:102990003D6F080E3C6F770EE82EFED73C2FFCD71C
:1029A0003D2FFAD76AEF14F05BEF00F0000E236EB4
:1029B0001DBEDFEF14F0DDEF14F0E9EF14F01D1E83
:1029C0001C1E1B1E1A6C000E1B221C221D22010E37
:1029D000236E21BEF0EF14F0EEEF14F0F8EF14F0D8
:1029E000211E201E1F1E1E6C000E1F2220222122CF
:1029F0001E501F1020102110D8B401EF15F003EF66
:102A000015F033EF15F0010E226E0DEF15F0D89092
:102A10001E361F3620362136222A21AE12EF15F03F
:102A200014EF15F007EF15F01E501A5C1F501B58DD
:102A300020501C5821501D58D8A021EF15F023EF2D
:102A400015F02BEF15F01E501A5E1F501B5A205028
:102A50001C5A21501D5AD890213220321F321E326A
:102A6000222E14EF15F02350D8B439EF15F03BEFB8
:102A700015F043EF15F01D1E1C1E1B1E1A6C000ED8
:102A80001B221C221D221AC01AF01BC01BF01CC0E6
:102A90001CF01DC01DF01200000E296E000E286EE5
:102AA00020C0D9FF21C0DAFFDECF24F0DECF25F031
:102AB000DECF26F024C0F6FF25C0F7FF26C0F8FFC2
:102AC0000800F5502A0AD8A468EF15F06AEF15F04F
:102AD000A0EF15F020C0D9FF21C0DAFFDE2A000EDA
:102AE000DE22DE2222C0D9FF23C0DAFFDFCF24F0AE
:102AF000020EDE26DFCF25F0000EDD2224C0D9FF36
:102B000025C0DAFFDECF28F0DDCF29F0BCEF15F0CD
:102B100028C01AF029C01BF0000E1D6E0A0E1C6E94
:102B2000D4EC1DF027501A24286E000E1B20296EAD
:102B300020C0D9FF21C0DAFFDE2A000EDE22DE220D
:102B400020C0D9FF21C0DAFFDECF24F0DECF25F090
:102B5000DECF26F024C0F6FF25C0F7FF26C0F8FF21
:102B60000800F550D00F276E090E2764BAEF15F054
:102B7000BCEF15F088EF15F028C020F029C021F037
:102B800012001C501D10D8B4C8EF15F0CAEF15F094
:102B9000D3EF15F01C501D10D8A4D1EF15F0D3EFD2
:102BA00015F0D8EF15F01A5018EC1FF025EF16F0BD
:102BB00020EE0AF01C50D9261D50DA22DE50DE101D
:102BC000D8B4E5EF15F0E7EF15F002EF16F020EEC0
:102BD0000AF01C50D9261D50DA2210EE03F01C50CA
:102BE000E1261D50E222DE50E65CE650800A226EAD
:102BF000DE50800A2258D8B000EF16F002EF16F02F
:102C000025EF16F020EE03F01C50D9261D50DA22D5
:102C1000DECF1EF0DDCF1FF01CC0D9FF1DC0DAFFD4
:102C2000DECF20F0DDCF21F01E502024D96E1F50C2
:102C30002120DA6E1AC0DFFF20EE03F01C50D926E7
:102C40001D50DA22DE2A000EDD2212003CA02BEFFE
:102C500016F02DEF16F037EF16F062C023F063C0C8
:102C600024F060C025F061C026F0F9EC1BF00001F3
:102C700065BF3DEF16F03FEF16F045EF16F064C06C
:102C800068F065C069F049EF16F0000E696F000E3C
:102C9000686F000E676F000E666F5CEF16F0000E37
:102CA0001B6E200E1A6E60C01CF061C01DF0C1ECDE
:102CB00015F00001664B672B6851665D6751800A0D
:102CC0002A6E6951800A2A58D8A069EF16F06BEF76
:102CD00016F04FEF16F03CB070EF16F072EF16F0F2
:102CE0007CEF16F062C023F063C024F060C025F0D2
:102CF00061C026F0F9EC1BF062C01AF063C01BF053
:102D0000EFEC1CF0000168511A24606F69511B2020
:102D1000616F12006AEC1EF00009D8B492EF16F051
:102D200094EF16F0CFEF16F0A2EF16F0EAEC1EF0DB
:102D3000EBEF16F0E6EC1EF0EBEF16F0DEEC1EF01B
:102D4000EBEF16F0BBC00AF0BCC00BF002D8B3EF3B
:102D500016F00500FA6E0001AF51FD6EB051FE6E27
:102D6000FF6AFA5012000C6E0D6A0D50000AD8B4BA
:102D7000BCEF16F09EEF16F00C50010AD8B49EEF8F
:102D800016F0030AD8B496EF16F0010AD8B49AEFF9
:102D900016F0070AD8B49EEF16F09EEF16F0000169
:102DA000CC91C6C0D9FFC7C0DAFFC64BC72BDF50D6
:102DB000EEEC1EF00001C807D8A0C907C851C91120
:102DC000D8A4E5EF16F0E7EF16F0EAEF16F0060EDE
:102DD000EBEF16F0030E12000CEC1FF0C6C0D9FF8B
:102DE000C7C0DAFFDF6E0001C64BC72BC807D8A0EB
:102DF000C907C851C911D8B400EF17F002EF17F096
:102E000007EF17F0F8EC1EF0050E3EEF17F0CC8739
:102E100012EF17F0D2EC1EF03EEF17F0D6EC1EF0DA
:102E20003EEF17F0B5C00AF0B6C00BF002D822EFA3
:102E300017F00500FA6EA951FD6EAA51FE6EFF6AE9
:102E4000FA5012000C6E0D6A0D50000AD8B42BEF28
:102E500017F00EEF17F00C50010AD8B40EEF17F070
:102E6000030AD8B40AEF17F0010AD8B40AEF17F032
:102E7000070AD8B40EEF17F00EEF17F01200000E8D
:102E8000226E000E236E000E246E000E256E1E5064
:102E90001F1020102110D8B450EF17F052EF17F088
:102EA00088EF17F0010E266E5CEF17F0D8901E36F3
:102EB0001F3620362136262A21AE61EF17F063EF48
:102EC00017F056EF17F0D8902236233624362536E1
:102ED0001E501A5C1F501B5820501C5821501D5862
:102EE000D8A075EF17F077EF17F080EF17F01E50AE
:102EF0001A5E1F501B5A20501C5A21501D5A228006
:102F0000D890213220321F321E32262E63EF17F066
:102F100022C01AF023C01BF024C01CF025C01DF0F5
:102F200012001C6E010E1D6E0001CCB59AEF17F059
:102F30009CEF17F0DEEF17F01CC0C5F0CC93CC85EA
:102F4000CC910E0ECA6F010EC46FF40EC36FCC8706
:102F5000240EA96F3E0EAA6F000EB56F000EB66F5D
:102F6000240EAB6F3E0EAC6F000EB76F000EB86F45
:102F7000240EAD6F3E0EAE6F000EB96F000EBA6F2D
:102F8000240EAF6F3E0EB06F000EBB6F000EBC6F15
:102F9000200EB16F3E0EB26F000EBD6F000EBE6F01
:102FA000EA0E1A6E3D0E1B6EC5EC1EF006EC1FF00D
:102FB0000BEC1EF0FEEC1EF0000E1D6E1D501200FC
:102FC000580EF66E3D0EF76E000EF86E01EE3EF0F6
:102FD00010EE0AF00900F5CFEEFFE550E150FAE1FE
:102FE000AC0EF66E3C0EF76E000EF86E00EEE7F0DB
:102FF00010EE14F00900F5CFEEFFE550E150FAE1D4
:10300000E40EF66E3D0EF76E000EF86E00EE40F028
:1030100010EE06F00900F5CFEEFFE550E150FAE1C1
:1030200001EE00F02C0EEE6AE806FDE100EEA9F0DC
:103030003E0EEE6AE806FDE100EE2EF0120EEE6A9C
:10304000E806FDE146904692000158EF14F0245046
:103050002510D8B42EEF18F030EF18F050EF18F01C
:1030600024C0D9FF25C0DAFFDF30E832E832070B91
:10307000266E080E26603FEF18F041EF18F050EF73
:1030800018F024C0D9FF25C0DAFFDF50070B266EE9
:10309000040E26644EEF18F050EF18F054EF18F0BD
:1030A000000E276E6AEF18F024C01AF025C01BF03E
:1030B0007CEC12F0276E24C01AF025C01BF024C04F
:1030C000D9FF25C0DAFF000EDFBE010E1C6E2DEC0D
:1030D00013F0276E275012001E501F1020102110D1
:1030E000D8B475EF18F077EF18F0A7EF18F0010ECD
:1030F000226E81EF18F0D8901E361F36203621360A
:10310000222A21AE86EF18F088EF18F07BEF18F036
:103110001E501A5C1F501B5820501C5821501D581F
:10312000D8A095EF18F097EF18F09FEF18F01E5009
:103130001A5E1F501B5A20501C5A21501D5AD890FD
:10314000213220321F321E32222E88EF18F01AC090
:103150001AF01BC01BF01CC01CF01DC01DF012009B
:10316000000E0001636F60516111D8A4BAEF18F02E
:10317000BCEF18F0C0EF18F0000E646FF1EF18F01C
:10318000010E60251A6E000E61211B6E010E1C6E71
:103190002DEC13F00001646F60C024F061C025F0D5
:1031A00062390F0B266ECCEC1BF00001646F60C01F
:1031B00024F061C025F022EC1DF00001646F60C0B6
:1031C00024F061C025F062C026F0CCEC1BF00001B9
:1031D000646F60C024F061C025F022EC1DF0000196
:1031E000646F64511200000E0001636F6051611141
:1031F000D8A4FDEF18F0FFEF18F003EF19F0000E60
:10320000646F34EF19F0010E60251A6E000E612113
:103210001B6E000E1C6E2DEC13F00001646F60C07D
:1032200024F061C025F062390F0B266ECCEC1BF048
:103230000001646F60C024F061C025F022EC1DF035
:103240000001646F60C024F061C025F062C026F008
:10325000CCEC1BF00001646F60C024F061C025F06D
:1032600022EC1DF00001646F6451120000016551F1
:103270006611D8A43EEF19F040EF19F05EEF19F097
:1032800077EF19F065C060F066C061F067C0F6FFC7
:1032900068C0F7FF000EF86E0F0EF76403D0080049
:1032A000F55005D0F6CFE9FFF7CFEAFFEF50000168
:1032B000626FB0EC18F00001674B682B67C0F6FF37
:1032C00068C0F7FF000EF86E0F0EF76403D0080019
:1032D000F55005D0F6CFE9FFF7CFEAFFEF50000930
:1032E000D8A475EF19F077EF19F042EF19F012003A
:1032F0000001CC8789EF19F0E2EC1EF0B5EF19F070
:103300000AEC1FF0030EB5EF19F0DEEC1EF0B5EF7E
:1033100019F0B5C00AF0B6C00BF002D899EF19F059
:103320000500FA6EA951FD6EAA51FE6EFF6AFA50B1
:1033300012000C6E0D6A0D50000AD8B4A2EF19F0FD
:1033400085EF19F00C50010AD8B485EF19F0030A83
:10335000D8B47CEF19F0010AD8B47CEF19F0070A51
:10336000D8B480EF19F085EF19F012001E6E1A50D4
:103370001B10D8B4BEEF19F0C0EF19F0DAEF19F056
:103380001E50020DA90EF324D96E000EF420DA6E41
:103390001AC0DEFF1BC0DDFF1E50020DB50EF32468
:1033A000D96E000EF420DA6E1CC0DEFF1DC0DDFFFA
:1033B000F0EF19F01E50020DA90EF324D96E000E85
:1033C000F420DA6E240EDE6E3E0EDD6E1E50020D0F
:1033D000B50EF324D96E000EF420DA6EDE6ADD6AD3
:1033E0001200056E01500210D8B4F9EF19F0FBEF8E
:1033F00019F015EF1AF00550020DA90EF324D96E3D
:10340000000EF420DA6E01C0DEFF02C0DDFF0550C1
:10341000020DB50EF324D96E000EF420DA6E03C04F
:10342000DEFF04C0DDFF2BEF1AF00550020DA90EE0
:10343000F324D96E000EF420DA6E240EDE6E3E0EFA
:10344000DD6E0550020DB50EF324D96E000EF4208A
:10345000DA6EDE6ADD6A1200246E000E256E2450DC
:1034600091EC17F00009D8B438EF1AF03AEF1AF0DF
:103470002FEF1AF0500E1F6E3B0E206E250E216EA0
:10348000000E226E1CEC1EF0230E1A6E000E1B6E38
:10349000000E1D6E010E1C6EE7EC1DF0000E1F6E7F
:1034A000000E206E000E216E000E226E28EC1EF023
:1034B000CEEC1EF066EC1DF0E806D8B462EF1AF010
:1034C00064EF1AF05AEF1AF02550120008EC1FF0C2
:1034D0000001CCA16EEF1AF070EF1AF07DEF1AF038
:1034E0006AEC1EF00009D8B478EF1AF07AEF1AF0FF
:1034F0007DEF1AF00F0E0001CA6F0001CA51020DD4
:10350000010EF324F66E100EF420F76EF86A000E2A
:10351000F8220900F5CF0EF00900F5CF0FF002D820
:103520009BEF1AF00500FA6E0E50FD6E0F50FE6E06
:10353000FF6AFA5012000001CA6F1200256E255072
:1035400091EC17F00009D8B4A8EF1AF0AAEF1AF01E
:103550009FEF1AF0F80E1F6E3A0E206E240E216EA9
:10356000000E226E1CEC1EF0230E1A6E000E1B6E57
:10357000000E1D6E010E1C6EE7EC1DF0000E1F6E9E
:10358000000E206E000E216E000E226E28EC1EF042
:10359000CEEC1EF066EC1DF0E806D8B4D2EF1AF0BF
:1035A000D4EF1AF0CAEF1AF0120099C02BF09AC0AB
:1035B0002CF09BC02DF0000E0001E26F000EE16FB9
:1035C000F5EF1AF097C07FF098C080F02B0E816F56
:1035D000000E826F9CC083F09DC084F02FEC08F039
:1035E00000017F51E1278051E2232BC0F6FF2CC060
:1035F000F7FF2DC0F8FF0800F5500009D8A403EF2D
:103600001BF005EF1BF0E2EF1AF0000E986F000EB2
:10361000976F120001013B6F000E01013A6F00012C
:10362000A751A811D8A417EF1BF019EF1BF01BEF3F
:103630001BF03CEF1BF0A7C01AF0A8C01BF0000E57
:103640001D6E000E1C6E000E1F6E040E1E6E5EECD4
:1036500010F0A7C09EF0A8C09FF05A0E0001A06F06
:10366000100EA16FA051A111D8A4000EA26F3BC1F2
:10367000A3F0A46B70EC1BF012000001CC91020EC1
:10368000CB6F4BEF1BF0E2EC1EF06FEF1BF0DEECAC
:103690001EF06FEF1BF0B9C00AF0BAC00BF002D8F1
:1036A0005BEF1BF00500FA6EAD51FD6EAE51FE6E84
:1036B000FF6AFA5012000C6E0D6A0D50000AD8B461
:1036C00064EF1BF047EF1BF00C50020AD8B443EF35
:1036D0001BF0010AD8B443EF1BF047EF1BF01200B8
:1036E000A30E01012C6F000E2D6F9EC02EF19FC006
:1036F0002FF1000E326F000E316F000E396F000E89
:10370000386F2E0E0001976F010E986FA0C099F0D0
:10371000A1C09AF0A2C09BF02C0E9C6F010E9D6F71
:10372000D5EC1AF00101315100019E25D96E01013D
:10373000325100019F21DA6EDF6A1200000E236E03
:10374000D00E2CEC1AF02E6E010E236ED00E2CEC47
:103750001AF02F6E020E236ED00E2CEC1AF0306E83
:10376000040E236ED00E2CEC1AF0316E050E236E73
:10377000D00E2CEC1AF0326E060E236ED00E2CEC0E
:103780001AF0336E20EE2EF000EE26F0050EDBCFA1
:10379000EBFFE806FCE21200000E2C6E000E2C6E11
:1037A0002C502424276E000E2520286E020E27247C
:1037B0001A6E000E28201B6E2CC029F026C02AF09D
:1037C000292AE5EF1BF0D8902A32292EE3EF1BF0CF
:1037D0002A50010B1C6E2DEC13F02B6E2C2A030EBD
:1037E0002C64F5EF1BF0F7EF1BF0D0EF1BF02B5024
:1037F0001200000E296E000E286E0AEF1CF027C082
:103800001AF01B6A25C01CF026C01DF0C1EC15F093
:10381000284A292A28502324D96E29502420DA6ED8
:10382000DF50276E2750D8A418EF1CF01AEF1CF0B9
:10383000FFEF1BF0120025BE28EF1CF0255006E11B
:103840002404D8B026EF1CF028EF1CF036EF1CF053
:1038500024C026F025C027F0261E271E264A272A28
:1038600026C024F027C025F03AEF1CF024C024F035
:1038700025C025F012001A6E010E1B6E0001CCB39C
:1038800044EF1CF046EF1CF059EF1CF0CC83000E07
:103890001B6E1A50D8B44FEF1CF051EF1CF055EFCF
:1038A0001CF0010ECA6F57EF1CF0020ECA6F00EC3D
:1038B0001FF01B50120020EE02F00A50D9260B50C8
:1038C000DA22DECF01F0DDCF02F00AC0D9FF0BC053
:1038D000DAFFDECF03F0DDCF04F0F9EC1DF0000ECF
:1038E000066E000E076E000E086E000E096E34ECB8
:1038F0001EF0020E1200080EB86E900EAB6E240E73
:10390000AC6EA00EAF6E010EB06E000E1A6E000E01
:103910001B6EBBEC1EF0000E1A6E000E1B6EB6EC9A
:103920001EF0000E1A6E000E1B6EC0EC1EF0000E94
:103930003F6E1200A7EF1CF01BC0F6FF1CC0F7FF84
:10394000F86A0800F5504BEC1EF01B4A1C2A1BC0FD
:10395000F6FF1CC0F7FFF86A0800F5500009D8A46C
:10396000B4EF1CF0B6EF1CF09CEF1CF012009F0EA1
:103970001E24206EFF0E1F20216E215007E11A0E1B
:10398000205CD8B0C6EF1CF0C8EF1CF0CEEF1CF0E6
:103990005F0E1E141E6E1F6AD2EF1CF01EC01EF0BA
:1039A0001FC01FF01200200E1A101C6E000E1B10FC
:1039B0001D6E9F0E1C241E6EFF0E1D201F6E1F50BD
:1039C0000AE11A0E1E5CD8A0E8EF1CF0EBEF1CF029
:1039D000010EECEF1CF0000E1A6E1B6A12001AC0EA
:1039E0001CF01BC01DF0F7EF1CF01A4A1B2A1AC06E
:1039F000D9FF1BC0DAFFDF50D8A401EF1DF003EFA1
:103A00001DF0F5EF1CF01C501A5C1A6E1D501B586F
:103A10001B6E1200000E8D6E000E8C6E000E896EF5
:103A2000000E8A6E000E8B6E070E966E926893687B
:103A3000BF0E946E95687E681F0E7F6E000E7C6EC2
:103A4000F18E120024C01AF025C01BF0010E1C6E6E
:103A50002DEC13F0060EE82EFED700F000F024C087
:103A60001AF025C01BF0000E1C6E2DEC13F0266E14
:103A7000265012009F0E1A241C6EFF0E1B201D6E76
:103A80001D500AE11A0E1C5CD8A049EF1DF04CEF46
:103A90001DF0010E4DEF1DF0000E1A6E1B6A120094
:103AA000BF0E1A241C6EFF0E1B201D6E1D500AE156
:103AB0001A0E1C5CD8A05FEF1DF062EF1DF0010E26
:103AC00063EF1DF0000E1A6E1B6A1200010E1A6ED3
:103AD0000001CCB36EEF1DF070EF1DF07AEF1DF01A
:103AE000CC95C56906EC1FF002EC1FF004EC1FF04A
:103AF000CBC01AF01A5012000AC001F00BC002F03D
:103B0000000E046E010E036EF9EC1DF0000E066E41
:103B1000000E076E000E086E000E096E34EC1EF0EB
:103B2000040E12000AC001F00BC002F0000E046E79
:103B3000020E036EF9EC1DF0000E066E000E076E0D
:103B4000000E086E000E096E34EC1EF0020E12001C
:103B50000AC001F00BC002F0000E046E010E036EED
:103B6000F9EC1DF0000E066E000E076E000E086EDA
:103B7000000E096E34EC1EF0020E12000AC001F0B5
:103B80000BC002F0000E046E020E036EF9EC1DF085
:103B9000000E066E000E076E000E086E000E096E17
:103BA00034EC1EF0040E12001A501C02F3CF1EF06B
:103BB000F4CF1FF01A501D02F3501F261B501C0299
:103BC000F3501F261EC01AF01FC01BF01200000188
:103BD000CCA7EDEF1DF0EFEF1DF0F8EF1DF01AC0D0
:103BE000C6F01BC0C7F01CC0C8F01DC0C9F0CC9700
:103BF00012000001CCA7FFEF1DF001EF1EF00AEF4D
:103C00001EF001C0C6F002C0C7F003C0C8F004C077
:103C1000C9F0CC971200C6BA10EF1EF012EF1EF0DA
:103C20001BEF1EF0800EC76E080EC66E000EC56E2E
:103C3000270EC86EC68A12001FC01AF020C01BF0E3
:103C400021C01CF022C01DF0000EB6EC19F01200CD
:103C50001FC01AF020C01BF021C01CF022C01DF0B4
:103C6000020EB6EC19F0120006C001F007C002F017
:103C700008C003F009C004F0000EF1EC19F01200C6
:103C8000CAEC1EF060EC1EF00AEC1DF0B1EC1EF068
:103C90007BEC1CF012001A6E9EA851EF1EF053EF41
:103CA0001EF04CEF1EF01AC0ADFF1200890F8A0FF4
:103CB0008B0F8C0F8D0F920F930F940F950F960F04
:103CC000800EC76E080EC66E000EC56E270EC86E3B
:103CD000C69A1200C5BC6FEF1EF072EF1EF0010E07
:103CE00073EF1EF0000E1200286E26C023F027C0CE
:103CF00024F028509EEC1AF012000001CC81C5512E
:103D00000109EEEC1EF0050E1200266E000E236E69
:103D100026502CEC1AF01200276E26C023F02750F4
:103D20002CEC1AF012000001CC81C551EEEC1EF013
:103D3000030E12000001CC93000ECB6F0E0E12008A
:103D40000001CC910EEC1FF0040E12000001CC9388
:103D5000000ECB6F0E0E1200800F810F820F830FAB
:103D6000840F400ED36E000E9B6E12001AC0FBF043
:103D70001BC0FCF012001AC0FDF01BC0FEF01200C8
:103D80001AC048F11BC049F112001AC03AF01BC01A
:103D90003BF01200D08EA2869F861200000E3BECF4
:103DA0001CF01200FBEC1EF0090E1200FBEC1EF0E2
:103DB0000A0E1200F8EC1EF0050E120014EC1FF0B3
:103DC000000E120016EC1FF0010E120016EC1FF090
:103DD000020E120016EC1FF0010E1200016E01C05F
:103DE000C9FF120008001018202866EC1AF0120013
:103DF000C59AC5881200C58AC58812009D86120022
:103E0000C58012009D961200C69A12009E9612005E
:103E10009E9612009E861200C9501200C58612009E
:103E2000050E1200010E1200C5841200C582120098
:023E300012007E
:020000040030CA
:0E000000FF021F1EFF8B85FF0FC00FE00F4099
:00000001FF
